{
  "contractName": "Token",
  "abi": [
    {
      "inputs": [
        {
          "internalType": "uint256",
          "name": "_rate",
          "type": "uint256"
        },
        {
          "internalType": "uint256",
          "name": "_initial_amount",
          "type": "uint256"
        }
      ],
      "stateMutability": "nonpayable",
      "type": "constructor"
    },
    {
      "stateMutability": "payable",
      "type": "fallback",
      "payable": true
    },
    {
      "inputs": [
        {
          "internalType": "address",
          "name": "",
          "type": "address"
        }
      ],
      "name": "balances",
      "outputs": [
        {
          "internalType": "uint256",
          "name": "",
          "type": "uint256"
        }
      ],
      "stateMutability": "view",
      "type": "function",
      "constant": true
    },
    {
      "inputs": [],
      "name": "owner",
      "outputs": [
        {
          "internalType": "address",
          "name": "",
          "type": "address"
        }
      ],
      "stateMutability": "view",
      "type": "function",
      "constant": true
    },
    {
      "inputs": [
        {
          "internalType": "address",
          "name": "",
          "type": "address"
        },
        {
          "internalType": "address",
          "name": "",
          "type": "address"
        }
      ],
      "name": "peers",
      "outputs": [
        {
          "internalType": "bool",
          "name": "",
          "type": "bool"
        }
      ],
      "stateMutability": "view",
      "type": "function",
      "constant": true
    },
    {
      "inputs": [
        {
          "internalType": "address",
          "name": "",
          "type": "address"
        },
        {
          "internalType": "uint256",
          "name": "",
          "type": "uint256"
        }
      ],
      "name": "peers_list",
      "outputs": [
        {
          "internalType": "address",
          "name": "",
          "type": "address"
        }
      ],
      "stateMutability": "view",
      "type": "function",
      "constant": true
    },
    {
      "inputs": [],
      "name": "rate",
      "outputs": [
        {
          "internalType": "uint256",
          "name": "",
          "type": "uint256"
        }
      ],
      "stateMutability": "view",
      "type": "function",
      "constant": true
    },
    {
      "inputs": [
        {
          "internalType": "address",
          "name": "",
          "type": "address"
        }
      ],
      "name": "status",
      "outputs": [
        {
          "internalType": "uint256",
          "name": "",
          "type": "uint256"
        }
      ],
      "stateMutability": "view",
      "type": "function",
      "constant": true
    },
    {
      "stateMutability": "payable",
      "type": "receive",
      "payable": true
    },
    {
      "inputs": [],
      "name": "deposit",
      "outputs": [],
      "stateMutability": "payable",
      "type": "function",
      "payable": true
    },
    {
      "inputs": [
        {
          "internalType": "uint256",
          "name": "_amount",
          "type": "uint256"
        }
      ],
      "name": "withdraw",
      "outputs": [],
      "stateMutability": "nonpayable",
      "type": "function"
    },
    {
      "inputs": [
        {
          "internalType": "address",
          "name": "_to",
          "type": "address"
        },
        {
          "internalType": "uint256",
          "name": "_amount",
          "type": "uint256"
        }
      ],
      "name": "transfer",
      "outputs": [],
      "stateMutability": "nonpayable",
      "type": "function"
    },
    {
      "inputs": [
        {
          "internalType": "address",
          "name": "_add",
          "type": "address"
        }
      ],
      "name": "setBlacklist",
      "outputs": [],
      "stateMutability": "nonpayable",
      "type": "function"
    },
    {
      "inputs": [
        {
          "internalType": "address",
          "name": "_add",
          "type": "address"
        }
      ],
      "name": "setWhitelist",
      "outputs": [],
      "stateMutability": "nonpayable",
      "type": "function"
    },
    {
      "inputs": [
        {
          "internalType": "address",
          "name": "_addr",
          "type": "address"
        }
      ],
      "name": "getBalance",
      "outputs": [
        {
          "internalType": "uint256",
          "name": "",
          "type": "uint256"
        }
      ],
      "stateMutability": "view",
      "type": "function",
      "constant": true
    },
    {
      "inputs": [
        {
          "internalType": "address",
          "name": "_addr",
          "type": "address"
        }
      ],
      "name": "getStatus",
      "outputs": [
        {
          "internalType": "uint256",
          "name": "",
          "type": "uint256"
        }
      ],
      "stateMutability": "view",
      "type": "function",
      "constant": true
    },
    {
      "inputs": [
        {
          "internalType": "address",
          "name": "_addr",
          "type": "address"
        }
      ],
      "name": "getPeers",
      "outputs": [
        {
          "internalType": "address[]",
          "name": "",
          "type": "address[]"
        }
      ],
      "stateMutability": "view",
      "type": "function",
      "constant": true
    }
  ],
  "bytecode": "0x60806040523480156200001157600080fd5b5060405162001aea38038062001aea83398181016040528101906200003791906200010a565b336000806101000a81548173ffffffffffffffffffffffffffffffffffffffff021916908373ffffffffffffffffffffffffffffffffffffffff1602179055508160018190555080600260003373ffffffffffffffffffffffffffffffffffffffff1673ffffffffffffffffffffffffffffffffffffffff16815260200190815260200160002081905550505062000151565b600080fd5b6000819050919050565b620000e481620000cf565b8114620000f057600080fd5b50565b6000815190506200010481620000d9565b92915050565b60008060408385031215620001245762000123620000ca565b5b60006200013485828601620000f3565b92505060206200014785828601620000f3565b9150509250929050565b61198980620001616000396000f3fe6080604052600436106100e15760003560e01c8063645b8b1b1161007f578063a9059cbb11610059578063a9059cbb146102ec578063cb4cc9f514610315578063d0e30db014610352578063f8b2cb4f1461035c576100e8565b8063645b8b1b1461025b578063854cff2f146102985780638da5cb5b146102c1576100e8565b80632d8ca3ac116100bb5780632d8ca3ac1461018f5780632e1a7d4d146101cc57806330ccebb5146101f55780634e054a6714610232576100e8565b8063035e7413146100ea57806327e235e3146101275780632c4e722e14610164576100e8565b366100e857005b005b3480156100f657600080fd5b50610111600480360381019061010c9190611368565b610399565b60405161011e91906113c3565b60405180910390f35b34801561013357600080fd5b5061014e600480360381019061014991906113de565b6103c8565b60405161015b9190611424565b60405180910390f35b34801561017057600080fd5b506101796103e0565b6040516101869190611424565b60405180910390f35b34801561019b57600080fd5b506101b660048036038101906101b1919061146b565b6103e6565b6040516101c391906114ba565b60405180910390f35b3480156101d857600080fd5b506101f360048036038101906101ee91906114d5565b610434565b005b34801561020157600080fd5b5061021c600480360381019061021791906113de565b610563565b6040516102299190611424565b60405180910390f35b34801561023e57600080fd5b50610259600480360381019061025491906113de565b6105ac565b005b34801561026757600080fd5b50610282600480360381019061027d91906113de565b610878565b60405161028f9190611424565b60405180910390f35b3480156102a457600080fd5b506102bf60048036038101906102ba91906113de565b610890565b005b3480156102cd57600080fd5b506102d6610be9565b6040516102e391906114ba565b60405180910390f35b3480156102f857600080fd5b50610313600480360381019061030e919061146b565b610c0d565b005b34801561032157600080fd5b5061033c600480360381019061033791906113de565b611143565b60405161034991906115c0565b60405180910390f35b61035a611210565b005b34801561036857600080fd5b50610383600480360381019061037e91906113de565b6112bc565b6040516103909190611424565b60405180910390f35b60046020528160005260406000206020528060005260406000206000915091509054906101000a900460ff1681565b60026020528060005260406000206000915090505481565b60015481565b6005602052816000526040600020818154811061040257600080fd5b906000526020600020016000915091509054906101000a900473ffffffffffffffffffffffffffffffffffffffff1681565b80600260003373ffffffffffffffffffffffffffffffffffffffff1673ffffffffffffffffffffffffffffffffffffffff1681526020019081526020016000205410156104b6576040517f08c379a00000000000000000000000000000000000000000000000000000000081526004016104ad9061163f565b60405180910390fd5b80600260003373ffffffffffffffffffffffffffffffffffffffff1673ffffffffffffffffffffffffffffffffffffffff1681526020019081526020016000206000828254610505919061168e565b925050819055503373ffffffffffffffffffffffffffffffffffffffff166108fc6001548361053491906116f1565b9081150290604051600060405180830381858888f1935050505015801561055f573d6000803e3d6000fd5b5050565b6000600360008373ffffffffffffffffffffffffffffffffffffffff1673ffffffffffffffffffffffffffffffffffffffff168152602001908152602001600020549050919050565b60008054906101000a900473ffffffffffffffffffffffffffffffffffffffff1673ffffffffffffffffffffffffffffffffffffffff163373ffffffffffffffffffffffffffffffffffffffff161461060457600080fd5b6002600360008373ffffffffffffffffffffffffffffffffffffffff1673ffffffffffffffffffffffffffffffffffffffff1681526020019081526020016000205414610875576002600360008373ffffffffffffffffffffffffffffffffffffffff1673ffffffffffffffffffffffffffffffffffffffff1681526020019081526020016000208190555060005b600560008373ffffffffffffffffffffffffffffffffffffffff1673ffffffffffffffffffffffffffffffffffffffff1681526020019081526020016000208054905081101561087357600060036000600560008673ffffffffffffffffffffffffffffffffffffffff1673ffffffffffffffffffffffffffffffffffffffff168152602001908152602001600020848154811061073457610733611722565b5b9060005260206000200160009054906101000a900473ffffffffffffffffffffffffffffffffffffffff1673ffffffffffffffffffffffffffffffffffffffff1673ffffffffffffffffffffffffffffffffffffffff168152602001908152602001600020540361086057600160036000600560008673ffffffffffffffffffffffffffffffffffffffff1673ffffffffffffffffffffffffffffffffffffffff16815260200190815260200160002084815481106107f6576107f5611722565b5b9060005260206000200160009054906101000a900473ffffffffffffffffffffffffffffffffffffffff1673ffffffffffffffffffffffffffffffffffffffff1673ffffffffffffffffffffffffffffffffffffffff168152602001908152602001600020819055505b808061086b90611751565b915050610693565b505b50565b60036020528060005260406000206000915090505481565b60008054906101000a900473ffffffffffffffffffffffffffffffffffffffff1673ffffffffffffffffffffffffffffffffffffffff163373ffffffffffffffffffffffffffffffffffffffff16146108e857600080fd5b6001600360008373ffffffffffffffffffffffffffffffffffffffff1673ffffffffffffffffffffffffffffffffffffffff1681526020019081526020016000205403610975576000600360008373ffffffffffffffffffffffffffffffffffffffff1673ffffffffffffffffffffffffffffffffffffffff168152602001908152602001600020819055505b6002600360008373ffffffffffffffffffffffffffffffffffffffff1673ffffffffffffffffffffffffffffffffffffffff1681526020019081526020016000205403610be6576000600360008373ffffffffffffffffffffffffffffffffffffffff1673ffffffffffffffffffffffffffffffffffffffff1681526020019081526020016000208190555060005b600560008373ffffffffffffffffffffffffffffffffffffffff1673ffffffffffffffffffffffffffffffffffffffff16815260200190815260200160002080549050811015610be457600160036000600560008673ffffffffffffffffffffffffffffffffffffffff1673ffffffffffffffffffffffffffffffffffffffff1681526020019081526020016000208481548110610aa557610aa4611722565b5b9060005260206000200160009054906101000a900473ffffffffffffffffffffffffffffffffffffffff1673ffffffffffffffffffffffffffffffffffffffff1673ffffffffffffffffffffffffffffffffffffffff1681526020019081526020016000205403610bd157600060036000600560008673ffffffffffffffffffffffffffffffffffffffff1673ffffffffffffffffffffffffffffffffffffffff1681526020019081526020016000208481548110610b6757610b66611722565b5b9060005260206000200160009054906101000a900473ffffffffffffffffffffffffffffffffffffffff1673ffffffffffffffffffffffffffffffffffffffff1673ffffffffffffffffffffffffffffffffffffffff168152602001908152602001600020819055505b8080610bdc90611751565b915050610a04565b505b50565b60008054906101000a900473ffffffffffffffffffffffffffffffffffffffff1681565b6000600360003373ffffffffffffffffffffffffffffffffffffffff1673ffffffffffffffffffffffffffffffffffffffff1681526020019081526020016000205414610c8f576040517f08c379a0000000000000000000000000000000000000000000000000000000008152600401610c86906117e5565b60405180910390fd5b6000600360008473ffffffffffffffffffffffffffffffffffffffff1673ffffffffffffffffffffffffffffffffffffffff1681526020019081526020016000205414610d11576040517f08c379a0000000000000000000000000000000000000000000000000000000008152600401610d0890611851565b60405180910390fd5b80600260003373ffffffffffffffffffffffffffffffffffffffff1673ffffffffffffffffffffffffffffffffffffffff168152602001908152602001600020541015610d93576040517f08c379a0000000000000000000000000000000000000000000000000000000008152600401610d8a906118bd565b60405180910390fd5b60001515600460003373ffffffffffffffffffffffffffffffffffffffff1673ffffffffffffffffffffffffffffffffffffffff16815260200190815260200160002060008473ffffffffffffffffffffffffffffffffffffffff1673ffffffffffffffffffffffffffffffffffffffff16815260200190815260200160002060009054906101000a900460ff16151503611093576001600460003373ffffffffffffffffffffffffffffffffffffffff1673ffffffffffffffffffffffffffffffffffffffff16815260200190815260200160002060008473ffffffffffffffffffffffffffffffffffffffff1673ffffffffffffffffffffffffffffffffffffffff16815260200190815260200160002060006101000a81548160ff021916908315150217905550600560003373ffffffffffffffffffffffffffffffffffffffff1673ffffffffffffffffffffffffffffffffffffffff168152602001908152602001600020829080600181540180825580915050600190039060005260206000200160009091909190916101000a81548173ffffffffffffffffffffffffffffffffffffffff021916908373ffffffffffffffffffffffffffffffffffffffff1602179055506001600460008473ffffffffffffffffffffffffffffffffffffffff1673ffffffffffffffffffffffffffffffffffffffff16815260200190815260200160002060003373ffffffffffffffffffffffffffffffffffffffff1673ffffffffffffffffffffffffffffffffffffffff16815260200190815260200160002060006101000a81548160ff021916908315150217905550600560008373ffffffffffffffffffffffffffffffffffffffff1673ffffffffffffffffffffffffffffffffffffffff168152602001908152602001600020339080600181540180825580915050600190039060005260206000200160009091909190916101000a81548173ffffffffffffffffffffffffffffffffffffffff021916908373ffffffffffffffffffffffffffffffffffffffff1602179055505b80600260003373ffffffffffffffffffffffffffffffffffffffff1673ffffffffffffffffffffffffffffffffffffffff16815260200190815260200160002060008282546110e2919061168e565b9250508190555080600260008473ffffffffffffffffffffffffffffffffffffffff1673ffffffffffffffffffffffffffffffffffffffff168152602001908152602001600020600082825461113891906118dd565b925050819055505050565b6060600560008373ffffffffffffffffffffffffffffffffffffffff1673ffffffffffffffffffffffffffffffffffffffff16815260200190815260200160002080548060200260200160405190810160405280929190818152602001828054801561120457602002820191906000526020600020905b8160009054906101000a900473ffffffffffffffffffffffffffffffffffffffff1673ffffffffffffffffffffffffffffffffffffffff16815260200190600101908083116111ba575b50505050509050919050565b3073ffffffffffffffffffffffffffffffffffffffff166108fc349081150290604051600060405180830381858888f19350505050158015611256573d6000803e3d6000fd5b50346001546112659190611911565b600260003373ffffffffffffffffffffffffffffffffffffffff1673ffffffffffffffffffffffffffffffffffffffff16815260200190815260200160002060008282546112b391906118dd565b92505081905550565b6000600260008373ffffffffffffffffffffffffffffffffffffffff1673ffffffffffffffffffffffffffffffffffffffff168152602001908152602001600020549050919050565b600080fd5b600073ffffffffffffffffffffffffffffffffffffffff82169050919050565b60006113358261130a565b9050919050565b6113458161132a565b811461135057600080fd5b50565b6000813590506113628161133c565b92915050565b6000806040838503121561137f5761137e611305565b5b600061138d85828601611353565b925050602061139e85828601611353565b9150509250929050565b60008115159050919050565b6113bd816113a8565b82525050565b60006020820190506113d860008301846113b4565b92915050565b6000602082840312156113f4576113f3611305565b5b600061140284828501611353565b91505092915050565b6000819050919050565b61141e8161140b565b82525050565b60006020820190506114396000830184611415565b92915050565b6114488161140b565b811461145357600080fd5b50565b6000813590506114658161143f565b92915050565b6000806040838503121561148257611481611305565b5b600061149085828601611353565b92505060206114a185828601611456565b9150509250929050565b6114b48161132a565b82525050565b60006020820190506114cf60008301846114ab565b92915050565b6000602082840312156114eb576114ea611305565b5b60006114f984828501611456565b91505092915050565b600081519050919050565b600082825260208201905092915050565b6000819050602082019050919050565b6115378161132a565b82525050565b6000611549838361152e565b60208301905092915050565b6000602082019050919050565b600061156d82611502565b611577818561150d565b93506115828361151e565b8060005b838110156115b357815161159a888261153d565b97506115a583611555565b925050600181019050611586565b5085935050505092915050565b600060208201905081810360008301526115da8184611562565b905092915050565b600082825260208201905092915050565b7f646f6e2774206861766520656e6f7567682062616c616e636500000000000000600082015250565b60006116296019836115e2565b9150611634826115f3565b602082019050919050565b600060208201905081810360008301526116588161161c565b9050919050565b7f4e487b7100000000000000000000000000000000000000000000000000000000600052601160045260246000fd5b60006116998261140b565b91506116a48361140b565b92508282039050818111156116bc576116bb61165f565b5b92915050565b7f4e487b7100000000000000000000000000000000000000000000000000000000600052601260045260246000fd5b60006116fc8261140b565b91506117078361140b565b925082611717576117166116c2565b5b828204905092915050565b7f4e487b7100000000000000000000000000000000000000000000000000000000600052603260045260246000fd5b600061175c8261140b565b91507fffffffffffffffffffffffffffffffffffffffffffffffffffffffffffffffff820361178e5761178d61165f565b5b600182019050919050565b7f596f7520617265206e6f7420696e207468652057686974656c69737400000000600082015250565b60006117cf601c836115e2565b91506117da82611799565b602082019050919050565b600060208201905081810360008301526117fe816117c2565b9050919050565b7f5265636569766572206973206e6f7420696e207468652057686974656c697374600082015250565b600061183b6020836115e2565b915061184682611805565b602082019050919050565b6000602082019050818103600083015261186a8161182e565b9050919050565b7f596f7520646f6e2774206861766520656e6f7567682062616c616e6365000000600082015250565b60006118a7601d836115e2565b91506118b282611871565b602082019050919050565b600060208201905081810360008301526118d68161189a565b9050919050565b60006118e88261140b565b91506118f38361140b565b925082820190508082111561190b5761190a61165f565b5b92915050565b600061191c8261140b565b91506119278361140b565b92508282026119358161140b565b9150828204841483151761194c5761194b61165f565b5b509291505056fea2646970667358221220b0b3424999c1b5bc543433ae8279318a4f803121b5701be619e74c0a29897f7964736f6c63430008130033",
  "immutableReferences": {},
  "source": "// SPDX-License-Identifier: MIT\r\npragma solidity ^0.8.18;\r\n\r\ncontract Token{\r\n    address public owner;\r\n    uint public rate;\r\n\r\n    mapping (address => uint) public balances;\r\n    mapping (address => uint) public status; //0: white 1: red 2: black\r\n    mapping (address => mapping (address => bool)) public peers;\r\n    mapping (address => address[]) public peers_list;\r\n\r\n    constructor(uint256 _rate, uint _initial_amount){\r\n        owner = msg.sender;\r\n        rate = _rate;\r\n        balances[msg.sender] = _initial_amount;\r\n    }\r\n\r\n    modifier restricted_owner() {\r\n        require(msg.sender == owner);\r\n        _;\r\n    }\r\n\r\n    function deposit() payable external { //purchase token using ETH\r\n        payable(address(this)).transfer(msg.value);\r\n        balances[msg.sender] += rate * msg.value;\r\n    }\r\n\r\n    function withdraw(uint _amount) external { //get back ETH\r\n        require(balances[msg.sender] >= _amount, \"don't have enough balance\");\r\n\r\n        balances[msg.sender] -= _amount;\r\n        payable(msg.sender).transfer(_amount / rate);\r\n    }\r\n\r\n    function transfer(address _to, uint _amount) external {\r\n        require(status[msg.sender] == 0, \"You are not in the Whitelist\");\r\n        require(status[_to] == 0, \"Receiver is not in the Whitelist\");\r\n        require(balances[msg.sender] >= _amount, \"You don't have enough balance\");\r\n\r\n        if (peers[msg.sender][_to] == false) {\r\n            peers[msg.sender][_to] = true;\r\n            peers_list[msg.sender].push(_to);\r\n            peers[_to][msg.sender] = true;\r\n            peers_list[_to].push(msg.sender);\r\n        }\r\n\r\n        balances[msg.sender] -= _amount;\r\n        balances[_to] += _amount;\r\n    }\r\n\r\n    function setBlacklist(address _add) external restricted_owner {\r\n        if (status[_add] != 2) {\r\n            status[_add] = 2; // make it black\r\n            for (uint i = 0; i < peers_list[_add].length; i++) {\r\n                if (status[peers_list[_add][i]] == 0) {\r\n                    status[peers_list[_add][i]] = 1; // make it red\r\n                }\r\n            }\r\n        }\r\n    }\r\n\r\n    function setWhitelist(address _add) external restricted_owner {\r\n        if (status[_add] == 1) { //red\r\n            status[_add] = 0;\r\n        }\r\n        if (status[_add] == 2) { //black\r\n            status[_add] = 0;\r\n            for (uint i = 0; i < peers_list[_add].length; i++) {\r\n                if (status[peers_list[_add][i]] == 1) {\r\n                    status[peers_list[_add][i]] = 0;\r\n                }\r\n            }\r\n        }\r\n    }\r\n\r\n\r\n    function getBalance(address _addr) external view returns (uint) {\r\n        return balances[_addr];\r\n    }\r\n\r\n    function getStatus(address _addr) external view returns (uint) {\r\n        return status[_addr];\r\n    }\r\n\r\n    function getPeers(address _addr) external view returns (address[] memory) {\r\n        return peers_list[_addr];\r\n    }\r\n\r\n    fallback() external payable {}\r\n    \r\n    receive() external payable {}\r\n\r\n}",
  "sourcePath": "D:\\year4sem2\\xalts_\\BlackList_WhiteList\\contracts\\Token.sol",
  "compiler": {
    "name": "solc",
    "version": "0.8.19+commit.7dd6d404.Emscripten.clang"
  },
  "schemaVersion": "3.4.13",
  "updatedAt": "2023-04-29T12:54:13.648Z",
  "networkType": "ethereum",
  "devdoc": {
    "kind": "dev",
    "methods": {},
    "version": 1
  },
  "userdoc": {
    "kind": "user",
    "methods": {},
    "version": 1
  }
}